{
  "address": "0xf1B9CB7D0256a02E997586361D05829e7801D74B",
  "abi": [
    {
      "inputs": [],
      "name": "ListingCreationFailed",
      "type": "error"
    },
    {
      "inputs": [],
      "name": "ListingNotFound",
      "type": "error"
    },
    {
      "inputs": [],
      "name": "OnlyListingTypeCanModify",
      "type": "error"
    },
    {
      "inputs": [],
      "name": "ReentrancyGuardReentrantCall",
      "type": "error"
    },
    {
      "anonymous": false,
      "inputs": [
        {
          "indexed": true,
          "internalType": "uint256",
          "name": "id",
          "type": "uint256"
        },
        {
          "indexed": true,
          "internalType": "address",
          "name": "caller",
          "type": "address"
        },
        {
          "indexed": false,
          "internalType": "bytes32",
          "name": "action",
          "type": "bytes32"
        }
      ],
      "name": "ListingAction",
      "type": "event"
    },
    {
      "anonymous": false,
      "inputs": [
        {
          "indexed": true,
          "internalType": "uint256",
          "name": "listingId",
          "type": "uint256"
        },
        {
          "indexed": false,
          "internalType": "bool",
          "name": "active",
          "type": "bool"
        }
      ],
      "name": "ListingActivationChanged",
      "type": "event"
    },
    {
      "anonymous": false,
      "inputs": [
        {
          "indexed": true,
          "internalType": "uint256",
          "name": "id",
          "type": "uint256"
        },
        {
          "indexed": true,
          "internalType": "address",
          "name": "creator",
          "type": "address"
        },
        {
          "indexed": true,
          "internalType": "address",
          "name": "listingType",
          "type": "address"
        },
        {
          "indexed": false,
          "internalType": "uint256",
          "name": "listingId",
          "type": "uint256"
        },
        {
          "indexed": false,
          "internalType": "string",
          "name": "contenthash",
          "type": "string"
        }
      ],
      "name": "ListingCreated",
      "type": "event"
    },
    {
      "inputs": [
        {
          "internalType": "uint256",
          "name": "id",
          "type": "uint256"
        },
        {
          "internalType": "bytes32",
          "name": "action",
          "type": "bytes32"
        },
        {
          "internalType": "bytes",
          "name": "data",
          "type": "bytes"
        }
      ],
      "name": "callAction",
      "outputs": [],
      "stateMutability": "payable",
      "type": "function"
    },
    {
      "inputs": [
        {
          "internalType": "address",
          "name": "listingType",
          "type": "address"
        },
        {
          "internalType": "string",
          "name": "contenthash",
          "type": "string"
        },
        {
          "internalType": "bytes",
          "name": "data",
          "type": "bytes"
        }
      ],
      "name": "createListing",
      "outputs": [
        {
          "internalType": "uint256",
          "name": "id",
          "type": "uint256"
        }
      ],
      "stateMutability": "nonpayable",
      "type": "function"
    },
    {
      "inputs": [
        {
          "internalType": "uint256",
          "name": "id",
          "type": "uint256"
        }
      ],
      "name": "getListing",
      "outputs": [
        {
          "internalType": "address",
          "name": "creator",
          "type": "address"
        },
        {
          "internalType": "address",
          "name": "listingType",
          "type": "address"
        },
        {
          "internalType": "string",
          "name": "contenthash",
          "type": "string"
        },
        {
          "internalType": "bool",
          "name": "active",
          "type": "bool"
        },
        {
          "internalType": "bytes",
          "name": "listingData",
          "type": "bytes"
        }
      ],
      "stateMutability": "view",
      "type": "function"
    },
    {
      "inputs": [],
      "name": "listingCount",
      "outputs": [
        {
          "internalType": "uint256",
          "name": "",
          "type": "uint256"
        }
      ],
      "stateMutability": "view",
      "type": "function"
    },
    {
      "inputs": [
        {
          "internalType": "uint256",
          "name": "",
          "type": "uint256"
        }
      ],
      "name": "listings",
      "outputs": [
        {
          "internalType": "address",
          "name": "creator",
          "type": "address"
        },
        {
          "internalType": "address",
          "name": "listingType",
          "type": "address"
        },
        {
          "internalType": "string",
          "name": "contenthash",
          "type": "string"
        },
        {
          "internalType": "bool",
          "name": "active",
          "type": "bool"
        }
      ],
      "stateMutability": "view",
      "type": "function"
    },
    {
      "inputs": [
        {
          "internalType": "uint256",
          "name": "listingId",
          "type": "uint256"
        },
        {
          "internalType": "bool",
          "name": "active",
          "type": "bool"
        }
      ],
      "name": "setActive",
      "outputs": [],
      "stateMutability": "nonpayable",
      "type": "function"
    }
  ],
  "transactionHash": "0x73d9912a3225254a7c4967a333ec59bdecfcdf8aa3e8d875e7cc7bf7af975971",
  "args": [],
  "numDeployments": 2,
  "solcInputHash": "6cb3df4f65659f42656e3724b5ddd572",
  "bytecode": "0x608060405234801561001057600080fd5b506001600055610d9f806100256000396000f3fe6080604052600436106100555760003560e01c8063107a274a1461005a578063a9b07c2614610094578063ad627cc3146100b8578063de74e57b146100cd578063e0481e13146100fd578063e60a955d1461011d575b600080fd5b34801561006657600080fd5b5061007a6100753660046107e8565b61013d565b60405161008b959493929190610851565b60405180910390f35b3480156100a057600080fd5b506100aa60015481565b60405190815260200161008b565b6100cb6100c63660046108ec565b6102bc565b005b3480156100d957600080fd5b506100ed6100e83660046107e8565b610482565b60405161008b949392919061093f565b34801561010957600080fd5b506100aa61011836600461097e565b610545565b34801561012957600080fd5b506100cb610138366004610a1e565b610736565b6000818152600260208181526040808420815160808101835281546001600160a01b03908116825260018301541693810193909352928301805485946060948694869486949293929184019161019290610a4e565b80601f01602080910402602001604051908101604052809291908181526020018280546101be90610a4e565b801561020b5780601f106101e05761010080835404028352916020019161020b565b820191906000526020600020905b8154815290600101906020018083116101ee57829003601f168201915b50505091835250506003919091015460ff1615156020918201528151908201516040808401516060850151915163083d13a560e11b8152600481018d9052939a5091985090965094509091506001600160a01b0386169063107a274a90602401600060405180830381865afa158015610288573d6000803e3d6000fd5b505050506040513d6000823e601f3d908101601f191682016040526102b09190810190610a9e565b91505091939590929450565b6102c46107be565b60015484106102e657604051630fc87cc760e31b815260040160405180910390fd5b6000848152600260208181526040808420815160808101835281546001600160a01b0390811682526001830154169381019390935292830180549293929184019161033090610a4e565b80601f016020809104026020016040519081016040528092919081815260200182805461035c90610a4e565b80156103a95780601f1061037e576101008083540402835291602001916103a9565b820191906000526020600020905b81548152906001019060200180831161038c57829003601f168201915b50505091835250506003919091015460ff16151560209182015281015181516060830151604051634e4cfe2760e01b81529394506001600160a01b0390921692634e4cfe27923492610408928b929033908c908c908c90600401610b74565b6000604051808303818588803b15801561042157600080fd5b505af1158015610435573d6000803e3d6000fd5b50506040518781523393508892507f13fb71ea61092190fb57157739ca4022b56d4058356cc5c5b1b171772f84bb0b915060200160405180910390a35061047c6001600055565b50505050565b60026020819052600091825260409091208054600182015492820180546001600160a01b039283169490921692916104b990610a4e565b80601f01602080910402602001604051908101604052809291908181526020018280546104e590610a4e565b80156105325780601f1061050757610100808354040283529160200191610532565b820191906000526020600020905b81548152906001019060200180831161051557829003601f168201915b5050506003909301549192505060ff1684565b600061054f6107be565b6001805490600061055f83610bc3565b9190505590506000866001600160a01b031663696c9c0a338487876040518563ffffffff1660e01b81526004016105999493929190610bea565b6020604051808303816000875af11580156105b8573d6000803e3d6000fd5b505050506040513d601f19601f820116820180604052508101906105dc9190610c1c565b9050806105fc57604051630219dcc960e11b815260040160405180910390fd5b6040518060800160405280336001600160a01b03168152602001886001600160a01b0316815260200187878080601f01602080910402602001604051908101604052809392919081815260200183838082843760009201829052509385525050600160209384018190528683526002808552604093849020865181546001600160a01b03199081166001600160a01b039283161783559688015193820180549097169316929092179094559184015191928301916106bb915082610c8f565b50606091909101516003909101805460ff19169115159190911790556040516001600160a01b03881690339084907f2e084070a64eaad34536e8ff3d097cc9f122b44df30952e359a262ea6166a1a69061071a9083908c908c90610d4f565b60405180910390a45061072d6001600055565b95945050505050565b600082815260026020526040902060018101546001600160a01b0316331461077157604051634700922b60e01b815260040160405180910390fd5b60038101805460ff191683151590811790915560405190815283907fba896e3c7f11a00419a14ffad23b02775c679b3463fae1d428302c5b07fabeb69060200160405180910390a2505050565b6002600054036107e157604051633ee5aeb560e01b815260040160405180910390fd5b6002600055565b6000602082840312156107fa57600080fd5b5035919050565b60005b8381101561081c578181015183820152602001610804565b50506000910152565b6000815180845261083d816020860160208601610801565b601f01601f19169290920160200192915050565b6001600160a01b0386811682528516602082015260a06040820181905260009061087d90830186610825565b841515606084015282810360808401526108978185610825565b98975050505050505050565b60008083601f8401126108b557600080fd5b50813567ffffffffffffffff8111156108cd57600080fd5b6020830191508360208285010111156108e557600080fd5b9250929050565b6000806000806060858703121561090257600080fd5b8435935060208501359250604085013567ffffffffffffffff81111561092757600080fd5b610933878288016108a3565b95989497509550505050565b6001600160a01b0385811682528416602082015260806040820181905260009061096b90830185610825565b9050821515606083015295945050505050565b60008060008060006060868803121561099657600080fd5b85356001600160a01b03811681146109ad57600080fd5b9450602086013567ffffffffffffffff808211156109ca57600080fd5b6109d689838a016108a3565b909650945060408801359150808211156109ef57600080fd5b506109fc888289016108a3565b969995985093965092949392505050565b8015158114610a1b57600080fd5b50565b60008060408385031215610a3157600080fd5b823591506020830135610a4381610a0d565b809150509250929050565b600181811c90821680610a6257607f821691505b602082108103610a8257634e487b7160e01b600052602260045260246000fd5b50919050565b634e487b7160e01b600052604160045260246000fd5b600060208284031215610ab057600080fd5b815167ffffffffffffffff80821115610ac857600080fd5b818401915084601f830112610adc57600080fd5b815181811115610aee57610aee610a88565b604051601f8201601f19908116603f01168101908382118183101715610b1657610b16610a88565b81604052828152876020848701011115610b2f57600080fd5b610b40836020830160208801610801565b979650505050505050565b81835281816020850137506000828201602090810191909152601f909101601f19169091010190565b8781526001600160a01b0387811660208301528615156040830152851660608201526080810184905260c060a08201819052600090610bb69083018486610b4b565b9998505050505050505050565b600060018201610be357634e487b7160e01b600052601160045260246000fd5b5060010190565b60018060a01b0385168152836020820152606060408201526000610c12606083018486610b4b565b9695505050505050565b600060208284031215610c2e57600080fd5b8151610c3981610a0d565b9392505050565b601f821115610c8a57600081815260208120601f850160051c81016020861015610c675750805b601f850160051c820191505b81811015610c8657828155600101610c73565b5050505b505050565b815167ffffffffffffffff811115610ca957610ca9610a88565b610cbd81610cb78454610a4e565b84610c40565b602080601f831160018114610cf25760008415610cda5750858301515b600019600386901b1c1916600185901b178555610c86565b600085815260208120601f198616915b82811015610d2157888601518255948401946001909101908401610d02565b5085821015610d3f5787850151600019600388901b60f8161c191681555b5050505050600190811b01905550565b83815260406020820152600061072d604083018486610b4b56fea264697066735822122039c83b423b814d96c6be21cdb19acba9ce28685aa6a0648bdf715e7eeadccb2d64736f6c63430008140033",
  "devdoc": {
    "errors": {
      "ReentrancyGuardReentrantCall()": [
        {
          "details": "Unauthorized reentrant call."
        }
      ]
    },
    "kind": "dev",
    "methods": {},
    "version": 1
  },
  "userdoc": {
    "kind": "user",
    "methods": {},
    "version": 1
  },
  "storageLayout": {
    "storage": [
      {
        "astId": 88,
        "contract": "contracts/Marketplace.sol:Marketplace",
        "label": "_status",
        "offset": 0,
        "slot": "0",
        "type": "t_uint256"
      },
      {
        "astId": 219,
        "contract": "contracts/Marketplace.sol:Marketplace",
        "label": "listingCount",
        "offset": 0,
        "slot": "1",
        "type": "t_uint256"
      },
      {
        "astId": 224,
        "contract": "contracts/Marketplace.sol:Marketplace",
        "label": "listings",
        "offset": 0,
        "slot": "2",
        "type": "t_mapping(t_uint256,t_struct(ListingPointer)217_storage)"
      }
    ],
    "types": {
      "t_address": {
        "encoding": "inplace",
        "label": "address",
        "numberOfBytes": "20"
      },
      "t_bool": {
        "encoding": "inplace",
        "label": "bool",
        "numberOfBytes": "1"
      },
      "t_mapping(t_uint256,t_struct(ListingPointer)217_storage)": {
        "encoding": "mapping",
        "key": "t_uint256",
        "label": "mapping(uint256 => struct Marketplace.ListingPointer)",
        "numberOfBytes": "32",
        "value": "t_struct(ListingPointer)217_storage"
      },
      "t_string_storage": {
        "encoding": "bytes",
        "label": "string",
        "numberOfBytes": "32"
      },
      "t_struct(ListingPointer)217_storage": {
        "encoding": "inplace",
        "label": "struct Marketplace.ListingPointer",
        "members": [
          {
            "astId": 210,
            "contract": "contracts/Marketplace.sol:Marketplace",
            "label": "creator",
            "offset": 0,
            "slot": "0",
            "type": "t_address"
          },
          {
            "astId": 212,
            "contract": "contracts/Marketplace.sol:Marketplace",
            "label": "listingType",
            "offset": 0,
            "slot": "1",
            "type": "t_address"
          },
          {
            "astId": 214,
            "contract": "contracts/Marketplace.sol:Marketplace",
            "label": "contenthash",
            "offset": 0,
            "slot": "2",
            "type": "t_string_storage"
          },
          {
            "astId": 216,
            "contract": "contracts/Marketplace.sol:Marketplace",
            "label": "active",
            "offset": 0,
            "slot": "3",
            "type": "t_bool"
          }
        ],
        "numberOfBytes": "128"
      },
      "t_uint256": {
        "encoding": "inplace",
        "label": "uint256",
        "numberOfBytes": "32"
      }
    }
  }
}