{
  "address": "0x36A0389a7f2c2f25627217A955247388E1a04606",
  "abi": [
    {
      "inputs": [
        {
          "internalType": "address",
          "name": "_marketplace",
          "type": "address"
        }
      ],
      "stateMutability": "nonpayable",
      "type": "constructor"
    },
    {
      "inputs": [],
      "name": "Erc20TransferFailed",
      "type": "error"
    },
    {
      "inputs": [],
      "name": "EthSendFailed",
      "type": "error"
    },
    {
      "inputs": [],
      "name": "IncorrectEth",
      "type": "error"
    },
    {
      "inputs": [],
      "name": "InsufficientQuantity",
      "type": "error"
    },
    {
      "inputs": [],
      "name": "MarketplaceZeroAddress",
      "type": "error"
    },
    {
      "inputs": [],
      "name": "NoEthWithErc20",
      "type": "error"
    },
    {
      "inputs": [],
      "name": "NotActive",
      "type": "error"
    },
    {
      "inputs": [],
      "name": "NotCreator",
      "type": "error"
    },
    {
      "inputs": [],
      "name": "NotMarketplace",
      "type": "error"
    },
    {
      "inputs": [],
      "name": "NotSelf",
      "type": "error"
    },
    {
      "inputs": [],
      "name": "QuantityZero",
      "type": "error"
    },
    {
      "inputs": [],
      "name": "UnknownAction",
      "type": "error"
    },
    {
      "anonymous": false,
      "inputs": [
        {
          "indexed": true,
          "internalType": "uint256",
          "name": "listingId",
          "type": "uint256"
        },
        {
          "indexed": true,
          "internalType": "address",
          "name": "caller",
          "type": "address"
        }
      ],
      "name": "QuantityListingClosed",
      "type": "event"
    },
    {
      "anonymous": false,
      "inputs": [
        {
          "indexed": true,
          "internalType": "uint256",
          "name": "listingId",
          "type": "uint256"
        },
        {
          "indexed": true,
          "internalType": "address",
          "name": "creator",
          "type": "address"
        },
        {
          "indexed": false,
          "internalType": "address",
          "name": "paymentToken",
          "type": "address"
        },
        {
          "indexed": false,
          "internalType": "uint256",
          "name": "pricePerUnit",
          "type": "uint256"
        },
        {
          "indexed": false,
          "internalType": "uint256",
          "name": "initialQuantity",
          "type": "uint256"
        }
      ],
      "name": "QuantityListingCreated",
      "type": "event"
    },
    {
      "anonymous": false,
      "inputs": [
        {
          "indexed": true,
          "internalType": "uint256",
          "name": "listingId",
          "type": "uint256"
        },
        {
          "indexed": true,
          "internalType": "address",
          "name": "buyer",
          "type": "address"
        },
        {
          "indexed": false,
          "internalType": "uint256",
          "name": "unitPrice",
          "type": "uint256"
        },
        {
          "indexed": false,
          "internalType": "uint256",
          "name": "quantity",
          "type": "uint256"
        },
        {
          "indexed": false,
          "internalType": "uint256",
          "name": "totalPrice",
          "type": "uint256"
        },
        {
          "indexed": false,
          "internalType": "address",
          "name": "paymentToken",
          "type": "address"
        },
        {
          "indexed": false,
          "internalType": "uint256",
          "name": "remainingQuantity",
          "type": "uint256"
        }
      ],
      "name": "QuantityListingSold",
      "type": "event"
    },
    {
      "inputs": [
        {
          "internalType": "uint256",
          "name": "listingId",
          "type": "uint256"
        },
        {
          "internalType": "address",
          "name": "creator",
          "type": "address"
        },
        {
          "internalType": "bool",
          "name": "active",
          "type": "bool"
        },
        {
          "internalType": "address",
          "name": "buyer",
          "type": "address"
        },
        {
          "internalType": "bytes",
          "name": "data",
          "type": "bytes"
        }
      ],
      "name": "buy",
      "outputs": [],
      "stateMutability": "payable",
      "type": "function"
    },
    {
      "inputs": [
        {
          "internalType": "uint256",
          "name": "listingId",
          "type": "uint256"
        },
        {
          "internalType": "address",
          "name": "creator",
          "type": "address"
        },
        {
          "internalType": "bool",
          "name": "active",
          "type": "bool"
        },
        {
          "internalType": "address",
          "name": "caller",
          "type": "address"
        },
        {
          "internalType": "bytes",
          "name": "",
          "type": "bytes"
        }
      ],
      "name": "close",
      "outputs": [],
      "stateMutability": "nonpayable",
      "type": "function"
    },
    {
      "inputs": [
        {
          "internalType": "address",
          "name": "creator",
          "type": "address"
        },
        {
          "internalType": "uint256",
          "name": "listingId",
          "type": "uint256"
        },
        {
          "internalType": "bytes",
          "name": "data",
          "type": "bytes"
        }
      ],
      "name": "create",
      "outputs": [
        {
          "internalType": "bool",
          "name": "success",
          "type": "bool"
        }
      ],
      "stateMutability": "nonpayable",
      "type": "function"
    },
    {
      "inputs": [
        {
          "internalType": "uint256",
          "name": "listingId",
          "type": "uint256"
        }
      ],
      "name": "getListing",
      "outputs": [
        {
          "internalType": "bytes",
          "name": "data",
          "type": "bytes"
        }
      ],
      "stateMutability": "view",
      "type": "function"
    },
    {
      "inputs": [
        {
          "internalType": "uint256",
          "name": "listingId",
          "type": "uint256"
        },
        {
          "internalType": "address",
          "name": "creator",
          "type": "address"
        },
        {
          "internalType": "bool",
          "name": "active",
          "type": "bool"
        },
        {
          "internalType": "address",
          "name": "caller",
          "type": "address"
        },
        {
          "internalType": "bytes32",
          "name": "action",
          "type": "bytes32"
        },
        {
          "internalType": "bytes",
          "name": "data",
          "type": "bytes"
        }
      ],
      "name": "handleAction",
      "outputs": [],
      "stateMutability": "payable",
      "type": "function"
    },
    {
      "inputs": [
        {
          "internalType": "uint256",
          "name": "",
          "type": "uint256"
        }
      ],
      "name": "listings",
      "outputs": [
        {
          "internalType": "address",
          "name": "paymentToken",
          "type": "address"
        },
        {
          "internalType": "uint256",
          "name": "pricePerUnit",
          "type": "uint256"
        },
        {
          "internalType": "uint256",
          "name": "initialQuantity",
          "type": "uint256"
        },
        {
          "internalType": "uint256",
          "name": "remainingQuantity",
          "type": "uint256"
        }
      ],
      "stateMutability": "view",
      "type": "function"
    },
    {
      "inputs": [],
      "name": "marketplace",
      "outputs": [
        {
          "internalType": "address",
          "name": "",
          "type": "address"
        }
      ],
      "stateMutability": "view",
      "type": "function"
    }
  ],
  "transactionHash": "0xfc5335dc27770a06fb6d35da3e9ad31c3801fc30c12a78680e64b53090102452",
  "args": [
    "0xf1B9CB7D0256a02E997586361D05829e7801D74B"
  ],
  "numDeployments": 2,
  "solcInputHash": "86d172c2113a02eb7c819acea9643659",
  "bytecode": "0x60a060405234801561001057600080fd5b50604051610d96380380610d9683398101604081905261002f91610067565b6001600160a01b038116610056576040516328d01a9d60e01b815260040160405180910390fd5b6001600160a01b0316608052610097565b60006020828403121561007957600080fd5b81516001600160a01b038116811461009057600080fd5b9392505050565b608051610cc86100ce60003960008181610188015281816104ad01528181610590015281816106c801526108a40152610cc86000f3fe6080604052600436106100705760003560e01c8063696c9c0a1161004e578063696c9c0a14610146578063abc8c7af14610176578063af9d40b0146101c2578063de74e57b146101e257600080fd5b80630a0b927414610075578063107a274a1461008a5780634e4cfe2714610133575b600080fd5b6100886100833660046109b6565b610258565b005b34801561009657600080fd5b5061011d6100a5366004610a3b565b6000908152602081815260409182902082516080808201855282546001600160a01b03168083526001840154838601819052600285015484880181905260039095015460609485018190528751968701929092528587015291840192909252828201528251808303909101815260a090910190915290565b60405161012a9190610a78565b60405180910390f35b610088610141366004610aab565b610585565b34801561015257600080fd5b50610166610161366004610b3a565b6106bb565b604051901515815260200161012a565b34801561018257600080fd5b506101aa7f000000000000000000000000000000000000000000000000000000000000000081565b6040516001600160a01b03909116815260200161012a565b3480156101ce57600080fd5b506100886101dd3660046109b6565b610816565b3480156101ee57600080fd5b5061022e6101fd366004610a3b565b60006020819052908152604090208054600182015460028301546003909301546001600160a01b0390921692909184565b604080516001600160a01b039095168552602085019390935291830152606082015260800161012a565b333014610278576040516314e1dbf760e11b815260040160405180910390fd5b838061029757604051634065aaf160e11b815260040160405180910390fd5b6000878152602081905260409020600183156102c7576102b984860186610a3b565b9050806000036102c7575060015b6002820154158015906102f95781836003015410156102f9576040516348e126c160e11b815260040160405180910390fd5b600082846001015461030b9190610b96565b84549091506001600160a01b03166103b75780341461033d576040516354dc82ef60e01b815260040160405180910390fd5b60008a6001600160a01b03163460405160006040518083038185875af1925050503d806000811461038a576040519150601f19603f3d011682016040523d82523d6000602084013e61038f565b606091505b50509050806103b157604051632609239960e21b815260040160405180910390fd5b50610476565b34156103d557604051623b2d9d60e41b815260040160405180910390fd5b83546040516323b872dd60e01b81526001600160a01b038a811660048301528c811660248301526044820184905260009216906323b872dd906064016020604051808303816000875af1158015610430573d6000803e3d6000fd5b505050506040513d601f19601f820116820180604052508101906104549190610bc1565b90508061047457604051637c38dad560e11b815260040160405180910390fd5b505b811561051257600384018054849003908190556000036105125760405163e60a955d60e01b8152600481018c9052600060248201527f00000000000000000000000000000000000000000000000000000000000000006001600160a01b03169063e60a955d90604401600060405180830381600087803b1580156104f957600080fd5b505af115801561050d573d6000803e3d6000fd5b505050505b600184015484546003860154604080519384526020840187905283018490526001600160a01b03918216606084015260808301528916908c907f3d010cf7078b7e301dadaaefdcd80e1d6f766ce14fb3847d51bf7e437de920239060a00160405180910390a35050505050505050505050565b336001600160a01b037f000000000000000000000000000000000000000000000000000000000000000016146105ce5760405163386317a360e01b815260040160405180910390fd5b6000839050600080306001600160a01b031634848c8c8c8c8b8b6040516024016105fd96959493929190610be5565b60408051601f198184030181529181526020820180516001600160e01b03166001600160e01b031990941693909317909252905161063b9190610c41565b60006040518083038185875af1925050503d8060008114610678576040519150601f19603f3d011682016040523d82523d6000602084013e61067d565b606091505b5091509150816106af5780511561069657805160208201fd5b60405163211bf9ef60e21b815260040160405180910390fd5b50505050505050505050565b6000336001600160a01b037f000000000000000000000000000000000000000000000000000000000000000016146107065760405163386317a360e01b815260040160405180910390fd5b6000808061071685870187610c5d565b9250925092506040518060800160405280846001600160a01b031681526020018381526020018281526020018281525060008089815260200190815260200160002060008201518160000160006101000a8154816001600160a01b0302191690836001600160a01b03160217905550602082015181600101556040820151816002015560608201518160030155905050876001600160a01b0316877f259abdb1e4c15619501eeea0a452e29d8d111bf068691ce89c66008c351218b7858585604051610800939291906001600160a01b039390931683526020830191909152604082015260600190565b60405180910390a3506001979650505050505050565b333014610836576040516314e1dbf760e11b815260040160405180910390fd5b838061085557604051634065aaf160e11b815260040160405180910390fd5b836001600160a01b0316866001600160a01b031614610887576040516393687c0b60e01b815260040160405180910390fd5b60405163e60a955d60e01b815260048101889052600060248201527f00000000000000000000000000000000000000000000000000000000000000006001600160a01b03169063e60a955d90604401600060405180830381600087803b1580156108f057600080fd5b505af1158015610904573d6000803e3d6000fd5b50506040516001600160a01b03871692508991507f4c5cb4c370fc4021a479c88a8954349abd25ed26a08af006864d342050f1686c90600090a350505050505050565b6001600160a01b038116811461095c57600080fd5b50565b801515811461095c57600080fd5b60008083601f84011261097f57600080fd5b50813567ffffffffffffffff81111561099757600080fd5b6020830191508360208285010111156109af57600080fd5b9250929050565b60008060008060008060a087890312156109cf57600080fd5b8635955060208701356109e181610947565b945060408701356109f18161095f565b93506060870135610a0181610947565b9250608087013567ffffffffffffffff811115610a1d57600080fd5b610a2989828a0161096d565b979a9699509497509295939492505050565b600060208284031215610a4d57600080fd5b5035919050565b60005b83811015610a6f578181015183820152602001610a57565b50506000910152565b6020815260008251806020840152610a97816040850160208701610a54565b601f01601f19169190910160400192915050565b600080600080600080600060c0888a031215610ac657600080fd5b873596506020880135610ad881610947565b95506040880135610ae88161095f565b94506060880135610af881610947565b93506080880135925060a088013567ffffffffffffffff811115610b1b57600080fd5b610b278a828b0161096d565b989b979a50959850939692959293505050565b60008060008060608587031215610b5057600080fd5b8435610b5b81610947565b935060208501359250604085013567ffffffffffffffff811115610b7e57600080fd5b610b8a8782880161096d565b95989497509550505050565b8082028115828204841417610bbb57634e487b7160e01b600052601160045260246000fd5b92915050565b600060208284031215610bd357600080fd5b8151610bde8161095f565b9392505050565b8681526001600160a01b03868116602083015285151560408301528416606082015260a06080820181905281018290526000828460c0840137600060c0848401015260c0601f19601f8501168301019050979650505050505050565b60008251610c53818460208701610a54565b9190910192915050565b600080600060608486031215610c7257600080fd5b8335610c7d81610947565b9560208501359550604090940135939250505056fea2646970667358221220fe5f084dc8d08f193f0054d773a0ea8198d3be0fa1f2a6a521bdb3735b48f0cf64736f6c63430008140033",
  "devdoc": {
    "kind": "dev",
    "methods": {
      "create(address,uint256,bytes)": {
        "details": "All listings start at this step",
        "params": {
          "creator": "The creator of the listing",
          "data": "The data for the listing",
          "listingId": "The ID of the listing"
        }
      },
      "getListing(uint256)": {
        "details": "The data is the encoded data for the listing"
      },
      "handleAction(uint256,address,bool,address,bytes32,bytes)": {
        "details": "The caller must be the marketplace contract",
        "params": {
          "action": "The action to handle",
          "active": "Whether the listing is active",
          "caller": "The caller of the action",
          "creator": "The creator of the listing",
          "data": "The data for the action",
          "listingId": "The ID of the listing"
        }
      }
    },
    "title": "QuantityListings",
    "version": 1
  },
  "userdoc": {
    "kind": "user",
    "methods": {
      "create(address,uint256,bytes)": {
        "notice": "Creates a new listing"
      },
      "getListing(uint256)": {
        "notice": "Returns the data for a listing"
      },
      "handleAction(uint256,address,bool,address,bytes32,bytes)": {
        "notice": "Handles an action for a listing"
      }
    },
    "notice": "Listing type with per-unit pricing and optional quantity tracking.         - pricePerUnit is paid per purchased unit         - initialQuantity == 0 encodes \"unlimited\", remainingQuantity stays 0 and never decrements         - For limited listings, remainingQuantity decreases on each purchase; when it hits 0, listing is deactivated         - buy(...) accepts optional bytes data with abi.encode(uint256 quantity). If omitted or zero, defaults to 1",
    "version": 1
  },
  "storageLayout": {
    "storage": [
      {
        "astId": 500,
        "contract": "contracts/QuantityListings.sol:QuantityListings",
        "label": "listings",
        "offset": 0,
        "slot": "0",
        "type": "t_mapping(t_uint256,t_struct(QuantityListing)493_storage)"
      }
    ],
    "types": {
      "t_address": {
        "encoding": "inplace",
        "label": "address",
        "numberOfBytes": "20"
      },
      "t_mapping(t_uint256,t_struct(QuantityListing)493_storage)": {
        "encoding": "mapping",
        "key": "t_uint256",
        "label": "mapping(uint256 => struct QuantityListings.QuantityListing)",
        "numberOfBytes": "32",
        "value": "t_struct(QuantityListing)493_storage"
      },
      "t_struct(QuantityListing)493_storage": {
        "encoding": "inplace",
        "label": "struct QuantityListings.QuantityListing",
        "members": [
          {
            "astId": 486,
            "contract": "contracts/QuantityListings.sol:QuantityListings",
            "label": "paymentToken",
            "offset": 0,
            "slot": "0",
            "type": "t_address"
          },
          {
            "astId": 488,
            "contract": "contracts/QuantityListings.sol:QuantityListings",
            "label": "pricePerUnit",
            "offset": 0,
            "slot": "1",
            "type": "t_uint256"
          },
          {
            "astId": 490,
            "contract": "contracts/QuantityListings.sol:QuantityListings",
            "label": "initialQuantity",
            "offset": 0,
            "slot": "2",
            "type": "t_uint256"
          },
          {
            "astId": 492,
            "contract": "contracts/QuantityListings.sol:QuantityListings",
            "label": "remainingQuantity",
            "offset": 0,
            "slot": "3",
            "type": "t_uint256"
          }
        ],
        "numberOfBytes": "128"
      },
      "t_uint256": {
        "encoding": "inplace",
        "label": "uint256",
        "numberOfBytes": "32"
      }
    }
  }
}