{
  "address": "0x0fe4e093e587c33036c9e203CF6328B61844812d",
  "abi": [
    {
      "inputs": [
        {
          "internalType": "address",
          "name": "_marketplace",
          "type": "address"
        }
      ],
      "stateMutability": "nonpayable",
      "type": "constructor"
    },
    {
      "inputs": [],
      "name": "Erc20TransferFailed",
      "type": "error"
    },
    {
      "inputs": [],
      "name": "EthSendFailed",
      "type": "error"
    },
    {
      "inputs": [],
      "name": "IncorrectEth",
      "type": "error"
    },
    {
      "inputs": [],
      "name": "MarketplaceZeroAddress",
      "type": "error"
    },
    {
      "inputs": [],
      "name": "NoEthWithErc20",
      "type": "error"
    },
    {
      "inputs": [],
      "name": "NotActive",
      "type": "error"
    },
    {
      "inputs": [],
      "name": "NotCreator",
      "type": "error"
    },
    {
      "inputs": [],
      "name": "NotMarketplace",
      "type": "error"
    },
    {
      "inputs": [],
      "name": "NotSelf",
      "type": "error"
    },
    {
      "inputs": [],
      "name": "PriceZero",
      "type": "error"
    },
    {
      "inputs": [],
      "name": "UnknownAction",
      "type": "error"
    },
    {
      "anonymous": false,
      "inputs": [
        {
          "indexed": true,
          "internalType": "uint256",
          "name": "listingId",
          "type": "uint256"
        },
        {
          "indexed": true,
          "internalType": "address",
          "name": "caller",
          "type": "address"
        }
      ],
      "name": "SimpleListingClosed",
      "type": "event"
    },
    {
      "anonymous": false,
      "inputs": [
        {
          "indexed": true,
          "internalType": "uint256",
          "name": "listingId",
          "type": "uint256"
        },
        {
          "indexed": true,
          "internalType": "address",
          "name": "creator",
          "type": "address"
        },
        {
          "indexed": false,
          "internalType": "address",
          "name": "paymentToken",
          "type": "address"
        },
        {
          "indexed": false,
          "internalType": "uint256",
          "name": "price",
          "type": "uint256"
        }
      ],
      "name": "SimpleListingCreated",
      "type": "event"
    },
    {
      "anonymous": false,
      "inputs": [
        {
          "indexed": true,
          "internalType": "uint256",
          "name": "listingId",
          "type": "uint256"
        },
        {
          "indexed": true,
          "internalType": "address",
          "name": "buyer",
          "type": "address"
        },
        {
          "indexed": false,
          "internalType": "uint256",
          "name": "price",
          "type": "uint256"
        },
        {
          "indexed": false,
          "internalType": "address",
          "name": "paymentToken",
          "type": "address"
        }
      ],
      "name": "SimpleListingSold",
      "type": "event"
    },
    {
      "inputs": [
        {
          "internalType": "uint256",
          "name": "listingId",
          "type": "uint256"
        },
        {
          "internalType": "address",
          "name": "creator",
          "type": "address"
        },
        {
          "internalType": "bool",
          "name": "active",
          "type": "bool"
        },
        {
          "internalType": "address",
          "name": "buyer",
          "type": "address"
        },
        {
          "internalType": "bytes",
          "name": "",
          "type": "bytes"
        }
      ],
      "name": "buy",
      "outputs": [],
      "stateMutability": "payable",
      "type": "function"
    },
    {
      "inputs": [
        {
          "internalType": "uint256",
          "name": "listingId",
          "type": "uint256"
        },
        {
          "internalType": "address",
          "name": "creator",
          "type": "address"
        },
        {
          "internalType": "bool",
          "name": "active",
          "type": "bool"
        },
        {
          "internalType": "address",
          "name": "caller",
          "type": "address"
        },
        {
          "internalType": "bytes",
          "name": "",
          "type": "bytes"
        }
      ],
      "name": "close",
      "outputs": [],
      "stateMutability": "nonpayable",
      "type": "function"
    },
    {
      "inputs": [
        {
          "internalType": "address",
          "name": "creator",
          "type": "address"
        },
        {
          "internalType": "uint256",
          "name": "listingId",
          "type": "uint256"
        },
        {
          "internalType": "bytes",
          "name": "data",
          "type": "bytes"
        }
      ],
      "name": "create",
      "outputs": [
        {
          "internalType": "bool",
          "name": "success",
          "type": "bool"
        }
      ],
      "stateMutability": "nonpayable",
      "type": "function"
    },
    {
      "inputs": [
        {
          "internalType": "uint256",
          "name": "listingId",
          "type": "uint256"
        }
      ],
      "name": "getListing",
      "outputs": [
        {
          "internalType": "bytes",
          "name": "data",
          "type": "bytes"
        }
      ],
      "stateMutability": "view",
      "type": "function"
    },
    {
      "inputs": [
        {
          "internalType": "uint256",
          "name": "listingId",
          "type": "uint256"
        },
        {
          "internalType": "address",
          "name": "creator",
          "type": "address"
        },
        {
          "internalType": "bool",
          "name": "active",
          "type": "bool"
        },
        {
          "internalType": "address",
          "name": "caller",
          "type": "address"
        },
        {
          "internalType": "bytes32",
          "name": "action",
          "type": "bytes32"
        },
        {
          "internalType": "bytes",
          "name": "data",
          "type": "bytes"
        }
      ],
      "name": "handleAction",
      "outputs": [],
      "stateMutability": "payable",
      "type": "function"
    },
    {
      "inputs": [
        {
          "internalType": "uint256",
          "name": "",
          "type": "uint256"
        }
      ],
      "name": "listings",
      "outputs": [
        {
          "internalType": "address",
          "name": "paymentToken",
          "type": "address"
        },
        {
          "internalType": "uint256",
          "name": "price",
          "type": "uint256"
        }
      ],
      "stateMutability": "view",
      "type": "function"
    },
    {
      "inputs": [],
      "name": "marketplace",
      "outputs": [
        {
          "internalType": "address",
          "name": "",
          "type": "address"
        }
      ],
      "stateMutability": "view",
      "type": "function"
    }
  ],
  "transactionHash": "0x2216ff52e56af57d4223b96d462e356100e69f91b2a8b7ee80b6b6dd549bca76",
  "args": [
    "0xf1B9CB7D0256a02E997586361D05829e7801D74B"
  ],
  "numDeployments": 2,
  "solcInputHash": "6cb3df4f65659f42656e3724b5ddd572",
  "bytecode": "0x60a060405234801561001057600080fd5b50604051610c4c380380610c4c83398101604081905261002f91610067565b6001600160a01b038116610056576040516328d01a9d60e01b815260040160405180910390fd5b6001600160a01b0316608052610097565b60006020828403121561007957600080fd5b81516001600160a01b038116811461009057600080fd5b9392505050565b608051610b7e6100ce6000396000818161016201528181610287015281816104c6015281816105fe015261078e0152610b7e6000f3fe6080604052600436106100705760003560e01c8063696c9c0a1161004e578063696c9c0a14610120578063abc8c7af14610150578063af9d40b01461019c578063de74e57b146101bc57600080fd5b80630a0b927414610075578063107a274a1461008a5780634e4cfe271461010d575b600080fd5b6100886100833660046108a0565b61021b565b005b34801561009657600080fd5b506100f76100a5366004610925565b600090815260208181526040918290208251808401845281546001600160a01b031680825260019092015490830181905283519283019190915281830152815180820383018152606090910190915290565b6040516101049190610962565b60405180910390f35b61008861011b366004610995565b6104bb565b34801561012c57600080fd5b5061014061013b366004610a24565b6105f1565b6040519015158152602001610104565b34801561015c57600080fd5b506101847f000000000000000000000000000000000000000000000000000000000000000081565b6040516001600160a01b039091168152602001610104565b3480156101a857600080fd5b506100886101b73660046108a0565b610700565b3480156101c857600080fd5b506101fc6101d7366004610925565b600060208190529081526040902080546001909101546001600160a01b039091169082565b604080516001600160a01b039093168352602083019190915201610104565b33301461023b576040516314e1dbf760e11b815260040160405180910390fd5b838061025a57604051634065aaf160e11b815260040160405180910390fd5b600087815260208190526040808220905163e60a955d60e01b8152600481018a90526024810192909252907f00000000000000000000000000000000000000000000000000000000000000006001600160a01b03169063e60a955d90604401600060405180830381600087803b1580156102d357600080fd5b505af11580156102e7573d6000803e3d6000fd5b505082546001600160a01b0316915061039a90505780600101543414610320576040516354dc82ef60e01b815260040160405180910390fd5b6000876001600160a01b03163460405160006040518083038185875af1925050503d806000811461036d576040519150601f19603f3d011682016040523d82523d6000602084013e610372565b606091505b505090508061039457604051632609239960e21b815260040160405180910390fd5b50610462565b34156103b857604051623b2d9d60e41b815260040160405180910390fd5b805460018201546040516323b872dd60e01b81526001600160a01b0388811660048301528a81166024830152604482019290925260009291909116906323b872dd906064016020604051808303816000875af115801561041c573d6000803e3d6000fd5b505050506040513d601f19601f820116820180604052508101906104409190610a80565b90508061046057604051637c38dad560e11b815260040160405180910390fd5b505b60018101548154604080519283526001600160a01b039182166020840152908716918a917fe4d654b74430663bf02fab3635281ee523d5408952c187466a2d4a00ec23f16d910160405180910390a35050505050505050565b336001600160a01b037f000000000000000000000000000000000000000000000000000000000000000016146105045760405163386317a360e01b815260040160405180910390fd5b6000839050600080306001600160a01b031634848c8c8c8c8b8b60405160240161053396959493929190610aa4565b60408051601f198184030181529181526020820180516001600160e01b03166001600160e01b03199094169390931790925290516105719190610b00565b60006040518083038185875af1925050503d80600081146105ae576040519150601f19603f3d011682016040523d82523d6000602084013e6105b3565b606091505b5091509150816105e5578051156105cc57805160208201fd5b60405163211bf9ef60e21b815260040160405180910390fd5b50505050505050505050565b6000336001600160a01b037f0000000000000000000000000000000000000000000000000000000000000000161461063c5760405163386317a360e01b815260040160405180910390fd5b60008061064b84860186610b1c565b915091508060000361067057604051637294708f60e11b815260040160405180910390fd5b6040805180820182526001600160a01b03848116808352602080840186815260008c8152808352869020945185546001600160a01b03191690851617855551600190940193909355835190815291820184905289169188917ff14ca227abc05ef399dc41cebb3c87ab947f2695c82f639dfc6309263379e2e2910160405180910390a35060019695505050505050565b333014610720576040516314e1dbf760e11b815260040160405180910390fd5b838061073f57604051634065aaf160e11b815260040160405180910390fd5b836001600160a01b0316866001600160a01b031614610771576040516393687c0b60e01b815260040160405180910390fd5b60405163e60a955d60e01b815260048101889052600060248201527f00000000000000000000000000000000000000000000000000000000000000006001600160a01b03169063e60a955d90604401600060405180830381600087803b1580156107da57600080fd5b505af11580156107ee573d6000803e3d6000fd5b50506040516001600160a01b03871692508991507f06ad22b56747df09cc0aadf7a34eb5fc96c418282980329a0bd8e56d504d673790600090a350505050505050565b6001600160a01b038116811461084657600080fd5b50565b801515811461084657600080fd5b60008083601f84011261086957600080fd5b50813567ffffffffffffffff81111561088157600080fd5b60208301915083602082850101111561089957600080fd5b9250929050565b60008060008060008060a087890312156108b957600080fd5b8635955060208701356108cb81610831565b945060408701356108db81610849565b935060608701356108eb81610831565b9250608087013567ffffffffffffffff81111561090757600080fd5b61091389828a01610857565b979a9699509497509295939492505050565b60006020828403121561093757600080fd5b5035919050565b60005b83811015610959578181015183820152602001610941565b50506000910152565b602081526000825180602084015261098181604085016020870161093e565b601f01601f19169190910160400192915050565b600080600080600080600060c0888a0312156109b057600080fd5b8735965060208801356109c281610831565b955060408801356109d281610849565b945060608801356109e281610831565b93506080880135925060a088013567ffffffffffffffff811115610a0557600080fd5b610a118a828b01610857565b989b979a50959850939692959293505050565b60008060008060608587031215610a3a57600080fd5b8435610a4581610831565b935060208501359250604085013567ffffffffffffffff811115610a6857600080fd5b610a7487828801610857565b95989497509550505050565b600060208284031215610a9257600080fd5b8151610a9d81610849565b9392505050565b8681526001600160a01b03868116602083015285151560408301528416606082015260a06080820181905281018290526000828460c0840137600060c0848401015260c0601f19601f8501168301019050979650505050505050565b60008251610b1281846020870161093e565b9190910192915050565b60008060408385031215610b2f57600080fd5b8235610b3a81610831565b94602093909301359350505056fea2646970667358221220f16604716a5f738708acf9414a0c0ed29cc304409923c5abd0d0b8222406de5964736f6c63430008140033",
  "devdoc": {
    "kind": "dev",
    "methods": {
      "create(address,uint256,bytes)": {
        "details": "All listings start at this step",
        "params": {
          "creator": "The creator of the listing",
          "data": "The data for the listing",
          "listingId": "The ID of the listing"
        }
      },
      "getListing(uint256)": {
        "details": "The data is the encoded data for the listing"
      },
      "handleAction(uint256,address,bool,address,bytes32,bytes)": {
        "details": "The caller must be the marketplace contract",
        "params": {
          "action": "The action to handle",
          "active": "Whether the listing is active",
          "caller": "The caller of the action",
          "creator": "The creator of the listing",
          "data": "The data for the action",
          "listingId": "The ID of the listing"
        }
      }
    },
    "version": 1
  },
  "userdoc": {
    "kind": "user",
    "methods": {
      "create(address,uint256,bytes)": {
        "notice": "Creates a new listing"
      },
      "getListing(uint256)": {
        "notice": "Returns the data for a listing"
      },
      "handleAction(uint256,address,bool,address,bytes32,bytes)": {
        "notice": "Handles an action for a listing"
      }
    },
    "version": 1
  },
  "storageLayout": {
    "storage": [
      {
        "astId": 493,
        "contract": "contracts/SimpleListings.sol:SimpleListings",
        "label": "listings",
        "offset": 0,
        "slot": "0",
        "type": "t_mapping(t_uint256,t_struct(SimpleListing)486_storage)"
      }
    ],
    "types": {
      "t_address": {
        "encoding": "inplace",
        "label": "address",
        "numberOfBytes": "20"
      },
      "t_mapping(t_uint256,t_struct(SimpleListing)486_storage)": {
        "encoding": "mapping",
        "key": "t_uint256",
        "label": "mapping(uint256 => struct SimpleListings.SimpleListing)",
        "numberOfBytes": "32",
        "value": "t_struct(SimpleListing)486_storage"
      },
      "t_struct(SimpleListing)486_storage": {
        "encoding": "inplace",
        "label": "struct SimpleListings.SimpleListing",
        "members": [
          {
            "astId": 483,
            "contract": "contracts/SimpleListings.sol:SimpleListings",
            "label": "paymentToken",
            "offset": 0,
            "slot": "0",
            "type": "t_address"
          },
          {
            "astId": 485,
            "contract": "contracts/SimpleListings.sol:SimpleListings",
            "label": "price",
            "offset": 0,
            "slot": "1",
            "type": "t_uint256"
          }
        ],
        "numberOfBytes": "64"
      },
      "t_uint256": {
        "encoding": "inplace",
        "label": "uint256",
        "numberOfBytes": "32"
      }
    }
  }
}